S01E000050574D5F44656661756C745F53657475705F546573742E737265637F
S1130000F0060120E1020000DD020000DD02000034
S1130010DD020000DD020000DD020000000000003F
S1130020000000000000000000000000DD020000ED
S1130030DD02000000000000DD020000DD0200001F
S1130040DD020000DD020000DD020000DD02000030
S1130050DD020000DD020000DD020000DD02000020
S1130060DD020000DD020000DD020000DD02000010
S1130070DD020000DD020000DD020000DD02000000
S1130080DD020000DD020000DD020000DD020000F0
S1130090DD020000DD020000DD020000DD020000E0
S11300A0DD020000DD020000DD020000DD020000D0
S11300B0DD020000DD020000DD0200008D160000FC
S11300C099160000A5160000B1160000BD16000028
S11300D0DD020000DD020000DD020000DD020000A0
S11300E0DD020000DD02000000000000000000004E
S11300F00000000019180000DD020000DD0200000D
S1130100DD020000DD020000DD020000DD0200006F
S1130110DD020000DD020000DD020000DD0200005F
S1130120DD020000DD020000DD020000DD0200004F
S1130130DD020000DD020000DD020000DD0200003F
S1130140DD020000DD020000DD020000DD0200002F
S1130150DD020000DD020000DD020000DD0200001F
S1130160DD020000DD020000091A00001D1A000073
S1130170311A0000451A00000000000000000000D1
S1130180DD020000DD020000DD020000DD020000EF
S113019000000000DD020000DD020000DD020000BE
S11301A0DD020000DD020000DD020000DD020000CF
S11301B0DD020000DD020000DD020000DD020000BF
S11301C0DD020000DD020000DD020000DD020000AF
S11301D0DD020000DD020000DD020000DD0200009F
S11301E0DD020000DD020000DD020000DD0200008F
S11301F0C5210000DD020000DD020000E521000051
S1130200DD020000DD020000DD020000DD0200006E
S1130210DD020000DD020000DD020000DD0200005E
S11302208113000095130000DD020000DD020000D0
S1130230DD020000DD020000DD020000DD0200003E
S1130240DD020000DD020000DD020000DD0200002E
S1130250DD020000DD020000DD020000DD0200001E
S1130260DD02000010B5054C237833B9044B13B1FB
S11302700448AFF300800123237010BD3000002038
S1130280000000002C2600000C4B43B10C480D4923
S113029010B5AFF300800C48036823B910BD0A48B9
S11302A0036833B97047094B002BF7D0BDE8104001
S11302B01847064B002BF5D0184700BF000000007C
S11302C02C260000340000202C2600000000000032
S11302D008B5014B984708BD3D060000FEE7000045
S11302E008B51C4B1C4A9A4210D01C4B194A9A421E
S11302F00CD2013B9B1A23F0030304331344164925
S113030051F8040B42F8040B9A42F9D1144B154AE4
S11303109A420AD2013B9B1A23F003030433134489
S1130320002142F8041B9342FBD10F4B0F4A22F0E9
S11303307F029A60D3F8882042F47002C3F88820C0
S1130340BFF34F8FBFF36F8F094B9847094B984703
S1130350FEE700BF000000202C260000280000203B
S1130360F00600203000002000ED00E00000000056
S11303703523000035220000F0B585B01D4A136A0C
S113038043F48073136240221B4BC3F824211B4E99
S11303901B4D002402941B4B01930123009323461D
S11303A0324619492846194FB8471023321D2146B1
S11303B02846174CA047174B4FF48072C3F884208B
S11303C002F18042C3F8A8204FF04042C3F8A820AD
S11303D093F8C82002F0FE0242F0010283F8C8201C
S11303E093F8B42002F0F00242F0010283F8B42042
S11303F005B0F0BD00080040001C00404C00002087
S1130400200200204C0200200020004315070000B9
S1130410B907000000800041104B93F8D82002F087
S1130420FE0242F0010283F8D82093F8BC2002F0C7
S1130430F00242F0020283F8BC2093F8D92002F0C3
S1130440FE0242F0010283F8D92093F8BC2002F0A6
S11304500F0242F0200283F8BC2070470080004164
S1130460064B4022C3F89C204322C3F88C20044A44
S1130470536943F480535361704700BF001C00402C
S11304800008004008B5054B984700220449054878
S1130490054B9847054B984708BD00BF6104000011
S11304A000300040AC020020050F000019040000D9
S11304B02F4B4FF48072C3F89421C3F8882102F1C2
S11304C08042C3F8A8214FF04041C3F8A81193F823
S11304D0C82102F0FE0242F0010283F8C82193F819
S11304E0B42102F0F00242F0020283F8B4214FF486
S11304F00072C3F89421C3F8882102F18042C3F842
S1130500A821C3F8A81193F8C92102F0FE0242F011
S1130510010283F8C92193F8B42102F00F0242F0DA
S1130520200283F8B4214FF48062C3F8842102F1DD
S1130530804202F50032C3F8A8210E4AC3F8A8216C
S113054093F8CA2102F0FB0283F8CA2193F8CA2166
S113055002F0FE0242F0010283F8CA2193F8B521A9
S113056002F0F00242F0020283F8B521704700BFA6
S113057000800041000002C0064B4022C3F8142151
S11305804322C3F88C20044A136A43F0080313621D
S1130590704700BF001C00400008004008B5044B31
S11305A0984704490448054B9847054B984708BDAC
S11305B079050000000C004364020020B50B000024
S11305C0B1040000084A92F8CD3003F0FE0343F072
S11305D0010382F8CD3092F8B63003F00F0343F0F4
S11305E0400382F8B630704700800041044AD36962
S11305F043F02003D3614022024BC3F8F820704734
S113060000080040001C004008B5064B9847064B04
S11306109847064B9847024605490648064B9847B3
S113062008BD00BFED050000C505000085210000E0
S113063000140042040200200909000008B50D4B13
S113064098470D4B98470D4B98470D4B98470D4ACB
S1130650536943F40043536140220B4BC3F8A42075
S11306600A4B984702460A490A480B4B98470B4BDA
S1130670984708BDC51300007903000085040000F5
S11306809D05000000080040001C0040812100007E
S1130690003C0040B8020020110D000009060000D3
S11306A008B5836903B1984708BD08B5C36903B1A8
S11306B0984708BD2DE9F04706460F469146036A60
S11306C05C5C04EB4404E400D0F8288008EB0405E7
S11306D005F1040AD1B250460C4B984730460C4BF6
S11306E09847012807D94FEA19215046074B9847E4
S11306F0AB8A0133AB82AB8A0133AB8258F8043046
S113070013B1394630469847BDE8F08731100000F0
S1130710571300002DE9F84F894616461C469DF8EC
S113072028800B9D074640B149B152B1B8F1000F82
S113073009D0281C18BF012006E0002004E0002096
S113074002E0002000E00020DFF864B03F225946B8
S1130750DFF860A0D047601C402259468045CCBFDA
S113076000200120D0470023FF21DAB2B154013325
S1130770DAB2A242F9D93E6287F8244087F825808C
S1130780BD6249463846064B9847034628B9054A90
S1130790BA60054A3A60054A7A601846BDE8F88F9F
S11307A035120000B5060000A1060000AB060000EB
S11307B07C230000790F00002DE9F8430E4617460C
S11307C098460546002840D0002A40D0181C18BF7F
S11307D00120DFF8989066224946224CA04795F8FC
S11307E0240067224946B04234BF00200120A047BC
S11307F0296A8B5DFF2B2CD195F8240000231C461D
S1130800DAB28A5CFF2A1CBF0134E4B20133DAB2E3
S11308108242F5D995F82530A3421DD304EB44094F
S11308204FEAC909A86A48444246394604300E4B87
S11308309847024698B92B6A9C55AB6A99440023A1
S1130840A9F814301046BDE8F8830020C1E7002061
S1130850BFE76FF00C02F5E76FF01B02F2E76FF0F1
S11308600C02EFE7790F0000E10F00007C23000089
S1130870F8B50D460B4F044683223946003018BFA5
S11308800120094EB04794F8240084223946A84236
S113089034BF00200120B04729462046034B984727
S11308A00020F8BD7C230000790F000041130000F4
S11308B010B50446D6220549003018BF0120044B68
S11308C098472046034B9847002010BD7C23000026
S11308D0790F000069130000EFF31083036072B610
S11308E0BFF35F8F7047BFF35F8F036883F3108894
S11308F0704708B5436903B1984708BD08B58369D3
S113090003B1984708BD000038B50D46044680B1D0
S1130910081C18BF012033220749084B9847294671
S11309202046074B9847074B2360074B6360002022
S113093038BD0020EFE700BF98230000790F0000C6
S1130940411F0000F3080000FD08000010B5044634
S11309504A220949003018BF0120084B9847204615
S1130960074B984720B92046064B9847002010BDF6
S11309706FF0100010BD00BF98230000790F000035
S11309806F210000D520000010B504465822094903
S1130990003018BF0120084B98472046074B984762
S11309A020B12046064B9847002010BD6FF0100080
S11309B010BD00BF98230000790F00006F210000D4
S11309C0E920000070B50D46164604467C2206490F
S11309D0003018BF0120054B98473246294620466F
S11309E0034B9847002070BD98230000790F000046
S11309F0FD200000F8B50F461646044640F22712C3
S1130A000949003018BF0120084B98470025A5610B
S1130A106761E6612562102323720121A4F120009D
S1130A20034B98472846F8BDB0230000790F000017
S1130A30B91B000070B50D461646044640F2051277
S1130A400C49003018BF01200B4B9847A5610025C5
S1130A506561E661256210232372203C0121204652
S1130A60064B984740F2FF112046054B984728460D
S1130A7070BD00BFB0230000790F0000ED1B000023
S1130A80691C000070B504460E46051F0021094B81
S1130A90984700212046084B984700212046074BE1
S1130AA09847002384F82830236B13B13146284635
S1130AB0984770BDB91B0000ED1B00002D1C000001
S1130AC0026CC36B9A4200D2704710B504460021F1
S1130AD0044B9847002384F82830E36A0BB1201FA5
S1130AE0984710BD2D1C000010B504460379012B56
S1130AF0426B036C03F10101016494BFD15C32F8D1
S1130B001310084B9847226CE36B9A4200D010BD37
S1130B1000212046044B984701212046034B984767
S1130B20F5E700BF691C0000B91B00002D1C000084
S1130B3070B50446856B05B30379012B16D9066C91
S1130B40731C0364184B984725F81600236CE26B5A
S1130B5093421DD2626BB2B12179012994BFD15C59
S1130B6032F813102046114B984770BD066C731C65
S1130B7003640D4B9847A855E8E70B4B9847236C43
S1130B8001332364E2E7E1882046084B984770BDAF
S1130B9000212046064B9847002384F82830E36A56
S1130BA00BB1201F984770BD991C0000691C000000
S1130BB0ED1B000070B50D46064630B3081C18BF87
S1130BC00120A5221249134B9847344644F8045F88
S1130BD029462046104B9847002815DB0F4A002170
S1130BE020460F4DA8470F4A01212046A8470E4A28
S1130BF002212046A8470D4A03212046A8470C4B52
S1130C00B3620C4B7362002070BD0020D9E700BFB3
S1130C10B0230000790F00004D1B0000E90A00001A
S1130C20C51C0000310B0000C10A0000850A000049
S1130C30350A0000F5090000F8B5844607682FB1AD
S1130C408D683C460026C2F1010E0BE00E4B98471E
S1130C50F8BD7344A0680344AB420AD22368264615
S1130C6053B11C4663689342F3D8A06803449B1AAB
S1130C70F2E7A74204D034462046044B9847F8BD17
S1130C806046014B9847F8BDA10F0000CD0F00004E
S1130C902DE9F0474469076901370761037E13F0C2
S1130CA0010F13D1037E13F0020F0FD154B3636805
S1130CB0FB1AA268934207D3064600F11408DFF832
S1130CC04890DFF848A012E0BDE8F087037E43F0C7
S1130CD002030376BDE8F0877569E3682046984708
S1130CE085B12C466B68FB1AAA6893420AD3404626
S1130CF0C847237C012BEFD167603A462146404622
S1130D00D047E9E7BDE8F087D50F0000390C0000B3
S1130D1038B50D46044678B1081C18BF01203B22A3
S1130D200649074B984729462046064B984700201A
S1130D302061054B236038BD0020F0E7D02300007C
S1130D40790F0000711D0000910C000010B50446DD
S1130D5053220949003018BF0120084B9847204608
S1130D60074B984720B92046064B9847002010BDF2
S1130D706FF0100010BD00BFD0230000790F0000F9
S1130D805D210000C120000070B582B00D4604460C
S1130D9018B3081C18BF01207A221E491E4B98471D
S1130DA0237E43F00103237604F1140629463046DA
S1130DB01A4B984798B923696B60226929463046D3
S1130DC0174B9847237E03F0FE032376237E13F00C
S1130DD0020F10D1002002B070BD0020DCE7237E9A
S1130DE003F0FE0323767F220A4900200A4B98472A
S1130DF06FF01100EFE701A80A4B9847237E03F038
S1130E00FD0323762046084B984701A8074B9847D3
S1130E100020E0E7D0230000790F00007F0F0000DE
S1130E20390C0000D908000089210000E7080000FF
S1130E302DE9F8430F469046044628B331B3101CFD
S1130E4018BF0120F1221249124B98470834124D61
S1130E502046A8470028FBD0013F0026DFF8409039
S1130E600D4D17F8011F2046C8472046A847002803
S1130E70FBD001364645F4D3084D2046A847002848
S1130E80FBD03046BDE8F8830020DBE70020D9E73B
S1130E90E8230000790F0000EB190000F5190000A9
S1130EA0DD1900002DE9F8430F4690460446E0B1F1
S1130EB0E9B1101C18BF01204FF486720D490E4B86
S1130EC09847013F002608340C4DDFF83490204643
S1130ED0A8470028FBD02046C84707F8010F013671
S1130EE04645F4D33046BDE8F8830020E4E700200B
S1130EF0E2E700BFE8230000790F0000FF190000BB
S1130F00E319000038B50D46044698B1081C18BF13
S1130F10012034220849094B9847294604F1080066
S1130F20074B9847034618B9064A6260064A22608E
S1130F30184638BD0020ECE7E8230000790F0000D4
S1130F409D190000A50E0000310E000010B50446E6
S1130F5053220649003018BF0120054B984704F17D
S1130F600800044B9847002010BD00BFE823000090
S1130F70790F0000C919000000B900BE704703686A
S1130F804BB18B4209D01B681BB19942FBD10120A4
S1130F907047002070470020704701207047000010
S1130FA038B504460D46064B984780F001003922B7
S1130FB00449C0B2044B984723682B60256038BDB0
S1130FC07F0F000004240000790F000003680B6009
S1130FD00160704703680BB11A68026018467047D5
S1130FE070B50E461546044678B181B1A2B1012010
S1130FF028220D490D4B98476B1E1D4209D1636091
S11310000020A060E060266070BD0020F0E70020B2
S1131010EEE76FF00C0070BD282203490020034B5B
S113102098476B1EEBE700BF24240000790F0000F3
S113103038B50D46044651220B49003018BF012033
S11310400A4B9847E368626813402268D554E36802
S11310506168A2689A1A8A4284BF591AA16001334E
S1131060E360002038BD00BF24240000790F000095
S1131070406900F13D40A0F5E050800A4000763020
S113108000F0FE0070470000036B13F0010F1BD14A
S1131090036B13F0030FFBD1038813F0020F0DD081
S11310A0038823F002031B041B0C0380036B13F05F
S11310B0030FFBD1036B13F0020FFBD10123038059
S11310C0036B13F0030FFBD1036B13F0010FFBD180
S11310D01623374A03FB01239B88C380036BC3F3A6
S11310E00B03002BFAD11623314A03FB01239B790E
S11310F00372036BC3F30B03002BFAD116232C4AA0
S113110003FB0123DA7982701B898380036BC3F3A9
S11311100B03002BFAD11623254A03FB01239B7AE8
S11311208372036BC3F30B03002BFAD11623204AFB
S113113003FB0123DB7AC372036BC3F30B03002BA2
S1131140FAD116231A4A03FB01239B898381036B7B
S113115013F0800FFBD11623154A03FB0123DB890F
S1131160C381036B13F4807FFBD11623104A03FB66
S113117001231B8A0382036B13F4007FFBD1162324
S11311800B4A03FB01235B8A4382036B13F4806FD6
S1131190FBD11622064B02FB01310B7DC3704B8839
S11311A00380036B13F0030FFBD10020704700BFD3
S11311B04824000008B5426992F82E1092F82D30A8
S11311C00B4013F0010F06D113F0020F0DD113F0F1
S11311D0040F11D108BD012382F82E30B2F840204B
S11311E0836892B20021984708BD022382F82E300A
S11311F043680021984708BD042382F82E30036811
S113120000219847E6E7000000F13D40A0F5E050DA
S1131210C0F38720012807D008B58A22034900209B
S1131220034B9847002008BD00207047602400004D
S1131230790F00002DE9F0410C460546E1223849BA
S1131240003018BF0120374B98472046364B98474B
S113125001462046354B9847064610B13046BDE856
S1131260F0816C61324B9C4204BF324B1D602846B6
S1131270314FB847430900F01F00012404FA00F07D
S1131280DFF8B880203348F82300BFF34F8FBFF353
S11312906F8F2846B847430900F01F0004FA00F096
S11312A0603348F823002846B847430900F01F007C
S11312B0844048F823402846B847013080B203B23E
S11312C0002BCBDB5B0900F01F00012202FA00F0C7
S11312D0203348F82300BFF34F8FBFF36F8F2846A6
S11312E0B847013080B203B2002BB7DB5B0900F0D2
S11312F01F00012202FA00F0603348F82300284658
S1131300B847013080B203B2002BA7DB5B0900F0C1
S11313101F00012202FA00F048F823009EE700BFF4
S113132060240000790F00000912000089100000F9
S113133000200043600000207110000000E100E084
S1131340426913889BB243F002031380136B13F0BA
S1131350030FFBD170474369DB88C3F3C103032B3D
S11313600CBF0120022070474269137D43F0020341
S11313701375136BC3F30B03002BFAD170470000F2
S113138008B5024B1868024B984708BD600000205E
S1131390B511000008B5024B1868024B984708BD08
S11313A060000020B5110000430900F01F00012275
S11313B002FA00F04033024A42F82300704700BFAB
S11313C000E100E010B50D4A13889BB213800C4B6A
S11313D098470C4B98470C4B984702200B4CA0475E
S11313E00B4B984740F6FD70A0470A4A136943F433
S11313F000731361084B984710BD00BF00400041C3
S1131400151700002D17000009170000C916000069
S113141031170000000800409114000008B51A4A72
S1131420138C03F01F0303EB4301184800EB810006
S113143002EB031292F84E2012F0010F0AD11A01A6
S113144002F1824202F5204292F84E2012F0020F7D
S11314500BD108BD1A0102F1824202F5204201219A
S113146082F84E104368984708BD1A0102F182427F
S113147002F52042022182F84E1003EB4303034A93
S113148052F823309847E4E700A0004164000020AC
S113149070B4314A138823F002031B041B0C13801D
S11314A0538823F47C531B041B0C538013889BB276
S11314B043F001031380138813F0010FFBD1264B73
S11314C04FF470621A805A7B02F0FE025A730021B4
S11314D05961224A5A63224A9A63224B1F4C0E4690
S11314E01D68080100F1824202F5204215641D794D
S11314F082F845505D7982F84650DD8822182552DD
S1131500D660013108332029EAD11F23012016496E
S11315109AB213F4004F0BD00133242BF8D10E4AA6
S113152013889BB243F002031380002070BC704701
S11315305C0902F01F0200FA02F204F1200541F8EE
S11315402520BFF34F8FBFF36F8F04F1600541F87F
S1131550252041F82420DFE700A00041E00200201C
S1131560E00400207824000000E100E091B942B9D1
S1131570000100F1824000F52040022380F84C3045
S11315807047000100F1824000F52040022380F8FA
S11315904D307047012900D0704742B1000100F17D
S11315A0824000F52040012380F84D30F4E700012B
S11315B000F1824000F5204080F84C107047000094
S11315C0024B03EB0010816000207047E002002012
S11315D0024B03EB0010416000207047E002002042
S11315E030B4144C0201A3189D68A35AC3F3012319
S11315F0A25A12F4006F06D001FA03F42C440D4AE7
S113160002EB001294600B4C0201A5186D68A25AFB
S113161012F4806F05D001FA03F32B4404EB00129B
S1131620536089B2034B03EB00104180002030BCAF
S1131630704700BFE002002010B40D4C0301E25AD1
S113164092B242F00102E25203F1824303F52043D5
S11316501A6C42F002021A6431B1064A116901237C
S113166003FA00F00843106100205DF8044B704752
S1131670E002002000A0004101EB4101024B03EB1A
S113168081010160002070476400002008B5014B0F
S1131690984708BD1D14000008B5014B984708BDC4
S11316A01D14000008B5014B984708BD1D14000027
S11316B008B5014B984708BD1D14000008B5014B3F
S11316C0984708BD1D14000010F0010F08D00B4A04
S11316D00B4B1A62194643F6FD724B681342FCD158
S11316E010F0020F08D0074A054B5A62194643F618
S11316F0FD724B681342FCD1704700BF0611010014
S1131700001C0040050901000122014B5A71704779
S113171000080040044B42F28E029A8200229A751D
S1131720DA7501221A7470470014004070470000F3
S1131730364A136A23F00F0343F00403136211467D
S113174043F6FD724B681342FCD1304A536813F0E0
S1131750040FFBD12E4B00221A772E4A9A621A46A6
S113176092F82C3013F0100FFAD10022284B83F892
S113177020201A4692F82C3013F0040FFAD10222DA
S1131780234B1A771A4692F82C3013F0020FFAD131
S11317901F4B5A6A5A621A4692F82C3013F0080FFB
S11317A0FAD180221A4B83F820201A4692F82C3062
S11317B013F0040FFAD1164B93F8203013F0010FF5
S11317C01DD0134A136903F41063B3F5106FF9D1F4
S11317D00E4A5368002BFCD10C4A136A23F00F0302
S11317E043F006031362114643F6FD724B6813423D
S11317F0FCD1064A536813F0040FFBD17047044A26
S1131800136913F4807FFBD0E2E700BF001C0040A3
S1131810001000400000010400B583B00D4B9B781C
S1131820DBB20193019B13F0020F06D00A4B1B6835
S11318301BB1084A5068984709E0019B13F0010F57
S113184005D0054B5B6813B1024A5068984703B052
S11318505DF804FB00000241E006002070B489B08A
S113186006466C460D4D0FCD0FC495E80F0084E875
S11318700F00009BB3420DD0314601AB012053F859
S1131880042B8A4207D001300828F8D1002009B07F
S113189070BC70470020C0B2F9E700BF7825000093
S11318A008B5034B984780002E3000F0FE0008BDB9
S11318B05D18000008B50268117E937D0B4013F09B
S11318C0010F09D113F0040F09D113F0020F09D14C
S11318D013F0800F0BD108BD8368984708BDC36817
S11318E0984708BD022313760369984708BD04236B
S11318F053838023137643696FF012019847EAE714
S113190010B50446204B984728B140F249221F499C
S113191000201F4B9847E36913F0010F19D1E369C5
S113192013F0030FFBD1236813F0020F0BD02368CD
S113193023F002032360E36913F0030FFBD1E3698F
S113194013F0020FFBD105232360E36913F0030FA7
S1131950FBD1E36913F0010FFBD10E4B2360E36964
S113196013F0030FFBD14FF440336360E36913F0CA
S11319701F0FFBD1084BA3604FF6B943A38100208E
S1131980A07384F8300010BD5D180000B02500007D
S1131990790F0000040010400200700038B50C46B6
S11319A00546BD220549003018BF0120044B984765
S11319B02C602046034B984738BD00BFB02500007B
S11319C0790F0000011900000268136843F0020354
S11319D01360D36913F0030FFBD170470368996256
S11319E070470368986AC0B270470368187E00F0B5
S11319F0010070470368187EC0F340007047036815
S1131A00187EC0F38000704708B5024B1868024B7B
S1131A10984708BDE4010020B518000008B5024B42
S1131A201868024B984708BDE4010020B51800006F
S1131A3008B5024B1868024B984708BDE401002022
S1131A40B518000008B5024B1868024B984708BD4A
S1131A50E4010020B518000038B505460C460846D8
S1131A60364B984707280CD0002D55D040F67312FA
S1131A703349201C18BF0120324B98476FF00C00EB
S1131A8038BD002D51D140F673122D4900202D4B45
S1131A909847E36913F0010F19D1E36913F0030FB9
S1131AA0FBD1236813F0020F0BD0236823F0020349
S1131AB02360E36913F0030FFBD1E36913F0020F12
S1131AC0FBD10D232360E36913F0030FFBD1E3691A
S1131AD013F0010FFBD12C6040F606121849201CAC
S1131AE018BF0120174B9847174B2360E36913F085
S1131AF0030FFBD14FF400336360E36913F0170F56
S1131B00FBD177232373002084F8300001232B7149
S1131B1040F2FF13EB8038BD40F6731208490020F1
S1131B20084B98476FF00C0038BD40F67312044917
S1131B30201C18BF0120034B9847AAE75D1800003A
S1131B40B0250000790F00000C00200038B50446D1
S1131B500D46154B9847002825DB144B9D4204BFC6
S1131B60134B1C6000232361E360A3602846114BE0
S1131B709847011DC9B2012400F01F0204FA02F2C1
S1131B8043099B0003F1604303F56143C3F88020DC
S1131B90BFF34F8FBFF36F8FC3F880210130C0B202
S1131BA08142E9D1002038BD591A0000000C0043DD
S1131BB0E4010020A118000038B50D46046860B1A6
S1131BC0201C18BF012040F603320649064B9847F3
S1131BD02DB901232375002038BD0020F3E701232C
S1131BE0A375F8E7B0250000790F0000F8B50F469B
S1131BF004680C4E40F617323146003018BF0120FD
S1131C00094DA84740F618323146201C18BF012060
S1131C10A8471FB9042323750020F8BD0423A37526
S1131C20FAE700BFB0250000790F000038B50D4673
S1131C30044670B10068003018BF012040F62A3213
S1131C400749084B984735B9236802221A750020C2
S1131C5038BD0020F2E7236802229A75F7E700BF37
S1131C60B0250000790F000038B50D46044660B178
S1131C700068003018BF012040F63C320449054B8F
S1131C80984723689D62002038BD0020F4E700BF18
S1131C90B0250000790F000010B5044660B100685B
S1131CA0003018BF012040F657320449044B9847CE
S1131CB02368986A80B210BD0020F4E7B0250000C4
S1131CC0790F000070B50D461646044668B1032925
S1131CD08CBF002001204FF437620549054B98471B
S1131CE004EB8504A660002070BD0020F3E700BF6C
S1131CF0B0250000790F000070B588B006466C4628
S1131D00174D0FCD0FC495E80F0084E80F00009B1A
S1131D10B3421ED0304601AA012352F8041B81426B
S1131D2018D00133082BF8D100230E4A12789A42B6
S1131D3012D00C4A127D9A4208BF01200DD04FF4F4
S1131D40F47209490020094B98474FF0FF3008B05E
S1131D5070BD0023DBB2E8E7002040B2F7E700BF24
S1131D60CC25000000000020EC250000790F0000C5
S1131D7070B506460C460846694B98470546F4601C
S1131D808F2268490120684B9847236913F0010F9B
S1131D9019D1236913F0030FFBD1236813F0020F49
S1131DA00BD0236823F002032360236913F0030F8D
S1131DB0FBD1236913F0020FFBD1012323602369B4
S1131DC013F0030FFBD1236913F0010FFBD105EBD3
S1131DD08503564A02EB83035A682260236913F091
S1131DE0030FFBD105EB8503504901EB8303997A7B
S1131DF0E1731B89E3800123237302F00C02082A98
S1131E0050D0002A65D105EB8503484A02EB8303D1
S1131E109B89A383236913F0C00FFBD105EB8503D2
S1131E20424A02EB83031B8AE383236913F0C00F46
S1131E30FBD1012363723E4B9C426ED03D4B9C42CE
S1131E4004BF3D4B5E6005EB8503384A02EB830318
S1131E50B3F90230002B23DB5A0903F01F030121DD
S1131E6001FA03F32032354941F82230BFF34F8F92
S1131E70BFF36F8F05EB85052C4B03EB8505B5F997
S1131E800230002B0CDB590903F01F03012202FA74
S1131E9003F32A4A01F1600042F8203042F821306D
S1131EA0002070BD05EB8503204A02EB8303DB6849
S1131EB0E361236913F0C00FFBD105EB85031B4AD3
S1131EC002EB83031B692362236913F0C00FFBD168
S1131ED0AFE7042AADD105EB8503144A02EB830373
S1131EE01B7B2377236913F0C00FFBD105EB85031C
S1131EF00E4A02EB83031B7C6377236913F0C00F44
S1131F00FBD105EB8503094A02EB8303DB7AE37615
S1131F10236913F0200FFBD18BE7074B1E6092E778
S1131F20F91C0000EC250000790F000000000020DF
S1131F30003C004000140042E801002000E100E001
S1131F4038B505460C460846574B98472C6123691B
S1131F5013F0010F19D1236913F0030FFBD1236888
S1131F6013F0020F0BD0236823F0020323602369CC
S1131F7013F0030FFBD1236913F0020FFBD10123EC
S1131F802360236913F0030FFBD1236913F0010FBE
S1131F90FBD100EB8003454A02EB83035A682260BD
S1131FA0236913F0030FFBD100EB80033F4901EBDE
S1131FB08303997AE1731B89E3800323237302F07B
S1131FC00C02082A4ED0002A66D100EB8003374A5F
S1131FD002EB83039B89A383236913F0C00FFBD116
S1131FE000EB8003314A02EB83031B8AE3832369FA
S1131FF013F0C00FFBD12E4B9C424AD02D4B9C4278
S113200004BF2D4B5D6000EB8003284A02EB830381
S1132010B3F90230002B42DB5A0903F01F030121FC
S113202001FA03F32032254941F82230BFF34F8FE0
S1132030BFF36F8F00EB80001C4B03EB8000B0F903
S11320400230002B2DDB590903F01F03012202FA91
S113205003F31A4A01F1600042F8203042F82130BB
S1132060002038BD00EB8003104A02EB8303DB68D9
S1132070E361236913F0C00FFBD100EB80030B4A2B
S113208002EB83031B692362236913F0C00FFBD1A6
S1132090B1E7094B1D60B6E74FF0FF3038BD0020B3
S11320A038BD002038BD00BFF91C0000000000202E
S11320B0003C004000140042E801002000E100E080
S11320C0C268136843F002031360136913F0030F2B
S11320D0FBD170470269136843F00203136013696C
S11320E013F0030FFBD170470269136823F0020356
S11320F01360136913F0030FFBD1704770B50E46DC
S1132100154604692046134B9847134B8200111857
S113211003EB8101CE600D614B6803F00C03082BC7
S11321200CD0B6B2A683236913F0C00FFBD1ADB2B5
S1132130E583236913F0C00FFBD170BDE661236909
S113214013F0C00FFBD12562236913F0C00FFBD13C
S113215070BD00BFF91C000000000020C2681369B4
S113216013F0030FFBD11068C0F3400070470269FD
S1132170136913F0030FFBD11068C0F340007047DC
S1132180002070470020704710B5C068084B98477E
S1132190044640F29D1207490120074B984704EB7F
S11321A08404064B03EB8404A078054B984710BDC8
S11321B0F91C0000EC250000790F0000000000204D
S11321C0A913000008B5064B1868C3689A7A12F080
S11321D0010F00D108BD01229A7203689847F9E7FC
S11321E0E801002038B50C4B5D682C69A37A13F024
S11321F0010F05D00123A3722B680BB12846984721
S1132200637A13F0020F05D00223A3726B680BB13B
S11322102846984738BD00BFE801002070470000F9
S113222008B50248024B984708BD00BF04020020CD
S11322308909000000B583B0274B9847274CC82272
S11322404FF47A712046264B98472046254B9847F1
S113225025494FF47A738B60244BCB6000240C74B3
S1132260234D2846234B98472846234B9847234D14
S11322702846234B98472B680C2222492846984726
S1132280AB689C62204E21463046204B9847204B39
S113229098477169403120461E4B9847A9682831F8
S11322A020461D4B9847022120461C4B9847214647
S11322B001A81B4B98471B4A019B1A600122214627
S11322C02046194B984721462046184B98473046DC
S11322D0174B9847FEE700BFD1020000040200201C
S11322E0C50900004D090000F00100202122000072
S11322F0B8020020890D00004D0D0000AC02002042
S11323004D0F00000026000020020020710800008C
S113231091140000D1150000C1150000E115000062
S1132320791600001D2200006D150000391600000A
S1132330B108000070B50D4E0D4CA41BA41000256F
S1132340A54209D10B4E0C4C00F060F9A41BA4105B
S11323500025A54205D170BD56F8253098470135B2
S1132360EEE756F8253098470135F2E718260000C5
S113237018260000182600001C2600002E2E2F68A8
S1132380616C2F7372632F68616C5F6164635F615A
S113239073796E632E6300002E2E2F68616C2F7389
S11323A072632F68616C5F70776D2E6300000000AC
S11323B02E2E2F68616C2F7372632F68616C5F73AC
S11323C070695F6D5F6173796E632E630000000056
S11323D02E2E2F68616C2F7372632F68616C5F748B
S11323E0696D65722E6300002E2E2F68616C2F7349
S11323F072632F68616C5F75736172745F73796E59
S1132400632E63002E2E2F68616C2F7574696C73B4
S11324102F7372632F7574696C735F6C6973742E98
S1132420630000002E2E2F68616C2F7574696C7325
S11324302F7372632F7574696C735F72696E676250
S113244075666665722E63000100000002000000DC
S11324500000000000000000000000000000000078
S11324602E2E2F68706C2F6164632F68706C5F610F
S113247064632E6300000000004630000080000208
S11324800000000000000000000000000000000048
S11324900000000000000000000000000000000038
S11324A00000000000000000000000000000000028
S11324B00000000000000000000000000000000018
S11324C00000000000000000000000000000000008
S11324D000000000000000000000000000000000F8
S11324E000000000000000000000000000000000E8
S11324F000000000000000000000000000000000D8
S113250000000000000000000000000000000000C7
S113251000000000000000000000000000000000B7
S113252000000000000000000000000000000000A7
S11325300000000000000000000000000000000097
S11325400000000000000000000000000000000087
S11325500000000000000000000000000000000077
S11325600000000000000000000000000000000067
S11325700000000000000000003000400034004073
S113258000200141004001410000004300040043D9
S113259000080043000C004300000000000000009D
S11325A00000000000000000000000000000000027
S11325B02E2E2F68706C2F736572636F6D2F687089
S11325C06C5F736572636F6D2E63000000380040AA
S11325D0003C004000A0014100C001410014004241
S11325E00018004200140043001800432E2E2F68E8
S11325F0706C2F74632F68706C5F74632E630000BB
S113260048656C6C6F20576F726C6400F8B500BF3E
S1132610F8BC08BC9E46704789020000F8B500BFAC
S10F2620F8BC08BC9E4670476502000030
S113262C01006C000803000000000000DC05000041
S113263C0000000004006F000000000000000032E5
S10B264CDF2E00006F170000EF
S9030000FC
