:1000000080040120E1020000DD020000DD020000AA
:10001000DD020000DD020000DD0200000000000043
:10002000000000000000000000000000DD020000F1
:10003000DD02000000000000DD020000DD02000023
:10004000DD020000DD020000DD020000DD02000034
:10005000DD020000DD020000DD020000DD02000024
:10006000DD020000DD020000DD020000DD02000014
:10007000DD020000DD020000DD020000DD02000004
:10008000DD020000DD020000DD020000DD020000F4
:10009000DD020000DD020000DD020000DD020000E4
:1000A000DD020000DD020000DD020000DD020000D4
:1000B000DD020000DD020000DD020000DD020000C4
:1000C000DD020000DD020000DD020000DD020000B4
:1000D000DD020000DD020000DD020000DD020000A4
:1000E000DD020000DD020000000000000000000052
:1000F0000000000059050000DD020000DD020000E4
:10010000DD020000DD020000DD020000DD02000073
:10011000DD020000DD020000DD020000DD02000063
:10012000DD020000DD020000DD020000DD02000053
:10013000DD020000DD020000DD020000DD02000043
:10014000DD020000DD020000DD020000DD02000033
:10015000DD020000DD020000DD020000DD02000023
:10016000DD020000DD020000DD020000DD02000013
:10017000DD020000DD0200000000000000000000C1
:10018000DD020000DD020000DD020000DD020000F3
:1001900000000000DD020000DD020000DD020000C2
:1001A000DD020000DD020000DD020000DD020000D3
:1001B000DD020000DD020000DD020000DD020000C3
:1001C000DD020000DD020000DD020000DD020000B3
:1001D000DD020000DD020000DD020000DD020000A3
:1001E000DD020000DD020000DD020000DD02000093
:1001F000DD020000DD020000DD020000DD02000083
:10020000DD020000DD020000DD020000DD02000072
:10021000DD020000DD020000DD020000DD02000062
:10022000DD020000DD020000DD020000DD02000052
:10023000DD020000DD020000DD020000DD02000042
:10024000DD020000DD020000DD020000DD02000032
:10025000DD020000DD020000DD020000DD02000022
:10026000DD02000010B5054C237833B9044B13B1FF
:100270000448AFF300800123237010BD2C0400203C
:1002800000000000740700000C4B43B10C480D49FE
:1002900010B5AFF300800C48036823B910BD0A48BD
:1002A000036833B97047094B002BF7D0BDE8104005
:1002B0001847064B002BF5D0184700BF0000000080
:1002C00074070000300400207407000000000000E4
:1002D00008B5014B984708BD79030000FEE7000010
:1002E00008B51C4B1C4A9A4210D01C4B194A9A4222
:1002F0000CD2013B9B1A23F0030304331344164929
:1003000051F8040B42F8040B9A42F9D1144B154AE8
:100310009A420AD2013B9B1A23F00303043313448D
:10032000002142F8041B9342FBD10F4B0F4A22F0ED
:100330007F029A60D3F8882042F47002C3F88820C4
:10034000BFF34F8FBFF36F8F094B9847094B984707
:10035000FEE700BF00000020740700002C0400200E
:10036000800400202C04002000ED00E000000000CC
:10037000DD0500009D05000008B5014B984708BD4C
:10038000C903000010B5044B1C68044B9847014694
:100390002046034B984710BD48040020A5030000E9
:1003A000C1030000C0EB0010430102330348A0FB6F
:1003B00003235B08642000FB03F07047ABAAAAAAE2
:1003C0000139FDD8704700BF10B5094A13889BB2A8
:1003D0001380084B9847084B9847084B98470220D2
:1003E000074CA047074B984740F6FD70A04710BD4B
:1003F00000400041550400006D0400004904000065
:10040000090400007104000010F0010F08D00B4A2D
:100410000B4B1A62194643F6FD724B681342FCD12E
:1004200010F0020F08D0074A054B5A62194643F6EE
:10043000FD724B681342FCD1704700BF06090100F2
:10044000001C0040050901000122014B5A71704750
:1004500000080040044B42F28E029A8200229A75F4
:10046000DA7501221A7470470014004070470000CA
:10047000364A136A23F00F0343F004031362114654
:1004800043F6FD724B681342FCD1304A536813F0B7
:10049000040FFBD12E4B00221A772E4A9A621A467D
:1004A00092F82C3013F0100FFAD10022284B83F869
:1004B00020201A4692F82C3013F0040FFAD10222B1
:1004C000234B1A771A4692F82C3013F0020FFAD108
:1004D0001F4B5A6A5A621A4692F82C3013F0080FD2
:1004E000FAD180221A4B83F820201A4692F82C3039
:1004F00013F0040FFAD1164B93F8203013F0010FCC
:100500001DD0134A136903F41063B3F5106FF9D1CA
:100510000E4A5368002BFCD10C4A136A23F00F03D8
:1005200043F006031362114643F6FD724B68134213
:10053000FCD1064A536813F0040FFBD17047044AFC
:10054000136913F4807FFBD0E2E700BF001C00407A
:10055000001000400000010400B583B00D4B9B78F3
:10056000DBB20193019B13F0020F06D00A4B1B680C
:100570001BB1084A5068984709E0019B13F0010F2E
:1005800005D0054B5B6813B1024A5068984703B029
:100590005DF804FB000002414C040020F8B50C4B50
:1005A00098470C4B0222C3F8882002F18042C3F81E
:1005B000A8204FF04042C3F8A8201F4602264FF45F
:1005C0007A75054CC7F89C602846A047FAE700BF3B
:1005D000D1020000008000418503000070B50F4E7D
:1005E0000F4D761BB61018BF002405D0013455F806
:1005F000043B9847A642F9D10A4E0B4D761B00F0FA
:10060000A7F8B61018BF002406D0013455F8043BF3
:100610009847A642F9D170BD70BD00BF5C070000CD
:100620005C070000640700005C070000024B13B188
:10063000024800F005B87047000000004D060000B9
:10064000002301461A46184600F01EB838B50A4C79
:100650000A4D641BA4100AD004F18043013B05EB52
:100660008305013C55F804399847002CF9D1BDE8C1
:10067000384000F077B800BF740700007007000032
:10068000704700BF704700BF2DE9F8432C4D064668
:10069000286898460F469146FFF7F2FF294B1C68E1
:1006A000D4F84831002B3ED05A681F2A1CDC02F1D6
:1006B000010E76B103EB82010124C1F88890D3F8D2
:1006C000880194402043022EC3F88801C1F80881B4
:1006D00023D00232C3F804E0286843F82270FFF701
:1006E000D1FF0020BDE8F883174B0BB34FF4C8705F
:1006F000AFF300800346D8B1D4F84821026000214E
:1007000041600A46C4F848014FF0010EC0F8881154
:10071000C0F88C11002EDCD0CCE7D3F88C110C4340
:10072000C3F88C41D5E704F5A673C4F84831BBE79C
:100730002868FFF7A7FF4FF0FF30BDE8F88300BF40
:10074000280400204C0700000000000000000020EA
:10075000F8B500BFF8BC08BC9E4670472D060000E7
:1007600089020000F8B500BFF8BC08BC9E4670477F
:04077000650200001E
:1007740000000000EC02002054030020BC03002011
:100784000000000000000000000000000000000065
:100794000000000000000000000000000000000055
:1007A4000000000000000000000000000000000045
:1007B4000000000000000000000000000000000035
:1007C4000000000000000000000000000000000025
:1007D4000000000000000000000000000000000015
:1007E4000000000000000000000000000000000005
:1007F40000000000000000000000000000000000F5
:1008040000000000000000000000000000000000E4
:1008140000000000000000000100000000000000D3
:100824000E33CDAB34126DE6ECDE05000B00000098
:1008340000000000000000000000000000000000B4
:1008440000000000000000000000000000000000A4
:100854000000000000000000000000000000000094
:100864000000000000000000000000000000000084
:0C0B940000000000000000005C040020D5
:00000001FF
